:100000000C942D000C948B000C948B000C948B00A2
:100010000C948B000C948B000C948B000C948B0034
:100020000C948B000C948B000C948B000C948B0024
:100030000C948B000C948B000C946F000C948B0030
:100040000C948B000C948B000C948B000C948B0004
:100050000C948B0000600062800011241FBECFE56D
:10006000D4E0DEBFCDBFE4E5F0E040E017C0B591DD
:10007000A59135912591059107FD0CC0959185912C
:10008000EF01F92FE82F05900D92A217B307D9F7CA
:10009000FE0104C01D92A217B307E1F7E935F4078A
:0E00A00031F70E9457000C948000F894FFCFB7
:1000AE00B89A81B38FEF81BB3E9A86B18B6886B9C1
:1000BE007894369A91E088B3892788BB2FE73AE186
:1000CE0086E0215030408040E1F700C00000F3CFC1
:1000DE008F939F9384B195B190936100809360004C
:1000EE00809160009091610082BB369A9F918F91B2
:0200FE00189553
:10010000EC010E9490000E948F00CE010E9491009D
:06011000CE010E948D00EB
:040116000C94000045
:04011A000E945500EA
:02011E00089542
:02012000089540
:0201220008953E
:00000001FF
